{
  "_format": "hh-sol-artifact-1",
  "contractName": "AVAXAPE",
  "sourceName": "contracts/newContract.sol",
  "abi": [
    {
      "inputs": [
        {
          "internalType": "address payable",
          "name": "wallet",
          "type": "address"
        },
        {
          "internalType": "uint256",
          "name": "startDate",
          "type": "uint256"
        }
      ],
      "stateMutability": "nonpayable",
      "type": "constructor"
    },
    {
      "anonymous": false,
      "inputs": [
        {
          "indexed": true,
          "internalType": "address",
          "name": "user",
          "type": "address"
        },
        {
          "indexed": false,
          "internalType": "uint256",
          "name": "totalAmount",
          "type": "uint256"
        }
      ],
      "name": "FeePayed",
      "type": "event"
    },
    {
      "anonymous": false,
      "inputs": [
        {
          "indexed": true,
          "internalType": "address",
          "name": "user",
          "type": "address"
        },
        {
          "indexed": false,
          "internalType": "uint8",
          "name": "plan",
          "type": "uint8"
        },
        {
          "indexed": false,
          "internalType": "uint256",
          "name": "percent",
          "type": "uint256"
        },
        {
          "indexed": false,
          "internalType": "uint256",
          "name": "amount",
          "type": "uint256"
        },
        {
          "indexed": false,
          "internalType": "uint256",
          "name": "profit",
          "type": "uint256"
        },
        {
          "indexed": false,
          "internalType": "uint256",
          "name": "start",
          "type": "uint256"
        },
        {
          "indexed": false,
          "internalType": "uint256",
          "name": "finish",
          "type": "uint256"
        }
      ],
      "name": "NewDeposit",
      "type": "event"
    },
    {
      "anonymous": false,
      "inputs": [
        {
          "indexed": false,
          "internalType": "address",
          "name": "user",
          "type": "address"
        }
      ],
      "name": "Newbie",
      "type": "event"
    },
    {
      "anonymous": false,
      "inputs": [
        {
          "indexed": true,
          "internalType": "address",
          "name": "referrer",
          "type": "address"
        },
        {
          "indexed": true,
          "internalType": "address",
          "name": "referral",
          "type": "address"
        },
        {
          "indexed": true,
          "internalType": "uint256",
          "name": "level",
          "type": "uint256"
        },
        {
          "indexed": false,
          "internalType": "uint256",
          "name": "amount",
          "type": "uint256"
        }
      ],
      "name": "RefBonus",
      "type": "event"
    },
    {
      "anonymous": false,
      "inputs": [
        {
          "indexed": true,
          "internalType": "address",
          "name": "user",
          "type": "address"
        },
        {
          "indexed": false,
          "internalType": "uint256",
          "name": "amount",
          "type": "uint256"
        }
      ],
      "name": "Withdrawn",
      "type": "event"
    },
    {
      "inputs": [],
      "name": "INVEST_MIN_AMOUNT",
      "outputs": [
        {
          "internalType": "uint256",
          "name": "",
          "type": "uint256"
        }
      ],
      "stateMutability": "view",
      "type": "function"
    },
    {
      "inputs": [],
      "name": "PERCENTS_DIVIDER",
      "outputs": [
        {
          "internalType": "uint256",
          "name": "",
          "type": "uint256"
        }
      ],
      "stateMutability": "view",
      "type": "function"
    },
    {
      "inputs": [],
      "name": "PERCENT_STEP",
      "outputs": [
        {
          "internalType": "uint256",
          "name": "",
          "type": "uint256"
        }
      ],
      "stateMutability": "view",
      "type": "function"
    },
    {
      "inputs": [],
      "name": "PROJECT_FEE",
      "outputs": [
        {
          "internalType": "uint256",
          "name": "",
          "type": "uint256"
        }
      ],
      "stateMutability": "view",
      "type": "function"
    },
    {
      "inputs": [
        {
          "internalType": "uint256",
          "name": "",
          "type": "uint256"
        }
      ],
      "name": "REFERRAL_PERCENTS",
      "outputs": [
        {
          "internalType": "uint256",
          "name": "",
          "type": "uint256"
        }
      ],
      "stateMutability": "view",
      "type": "function"
    },
    {
      "inputs": [],
      "name": "TIME_STEP",
      "outputs": [
        {
          "internalType": "uint256",
          "name": "",
          "type": "uint256"
        }
      ],
      "stateMutability": "view",
      "type": "function"
    },
    {
      "inputs": [],
      "name": "WITHDRAW_FEE",
      "outputs": [
        {
          "internalType": "uint256",
          "name": "",
          "type": "uint256"
        }
      ],
      "stateMutability": "view",
      "type": "function"
    },
    {
      "inputs": [],
      "name": "commissionWallet",
      "outputs": [
        {
          "internalType": "address payable",
          "name": "",
          "type": "address"
        }
      ],
      "stateMutability": "view",
      "type": "function"
    },
    {
      "inputs": [],
      "name": "getContractBalance",
      "outputs": [
        {
          "internalType": "uint256",
          "name": "",
          "type": "uint256"
        }
      ],
      "stateMutability": "view",
      "type": "function"
    },
    {
      "inputs": [
        {
          "internalType": "uint8",
          "name": "plan",
          "type": "uint8"
        }
      ],
      "name": "getPercent",
      "outputs": [
        {
          "internalType": "uint256",
          "name": "",
          "type": "uint256"
        }
      ],
      "stateMutability": "view",
      "type": "function"
    },
    {
      "inputs": [
        {
          "internalType": "uint8",
          "name": "plan",
          "type": "uint8"
        }
      ],
      "name": "getPlanInfo",
      "outputs": [
        {
          "internalType": "uint256",
          "name": "time",
          "type": "uint256"
        },
        {
          "internalType": "uint256",
          "name": "percent",
          "type": "uint256"
        }
      ],
      "stateMutability": "view",
      "type": "function"
    },
    {
      "inputs": [
        {
          "internalType": "uint8",
          "name": "plan",
          "type": "uint8"
        },
        {
          "internalType": "uint256",
          "name": "deposit",
          "type": "uint256"
        }
      ],
      "name": "getResult",
      "outputs": [
        {
          "internalType": "uint256",
          "name": "percent",
          "type": "uint256"
        },
        {
          "internalType": "uint256",
          "name": "profit",
          "type": "uint256"
        },
        {
          "internalType": "uint256",
          "name": "finish",
          "type": "uint256"
        }
      ],
      "stateMutability": "view",
      "type": "function"
    },
    {
      "inputs": [
        {
          "internalType": "address",
          "name": "userAddress",
          "type": "address"
        }
      ],
      "name": "getUserAmountOfDeposits",
      "outputs": [
        {
          "internalType": "uint256",
          "name": "",
          "type": "uint256"
        }
      ],
      "stateMutability": "view",
      "type": "function"
    },
    {
      "inputs": [
        {
          "internalType": "address",
          "name": "userAddress",
          "type": "address"
        }
      ],
      "name": "getUserAvailable",
      "outputs": [
        {
          "internalType": "uint256",
          "name": "",
          "type": "uint256"
        }
      ],
      "stateMutability": "view",
      "type": "function"
    },
    {
      "inputs": [
        {
          "internalType": "address",
          "name": "userAddress",
          "type": "address"
        }
      ],
      "name": "getUserCheckpoint",
      "outputs": [
        {
          "internalType": "uint256",
          "name": "",
          "type": "uint256"
        }
      ],
      "stateMutability": "view",
      "type": "function"
    },
    {
      "inputs": [
        {
          "internalType": "address",
          "name": "userAddress",
          "type": "address"
        },
        {
          "internalType": "uint256",
          "name": "index",
          "type": "uint256"
        }
      ],
      "name": "getUserDepositInfo",
      "outputs": [
        {
          "internalType": "uint8",
          "name": "plan",
          "type": "uint8"
        },
        {
          "internalType": "uint256",
          "name": "percent",
          "type": "uint256"
        },
        {
          "internalType": "uint256",
          "name": "amount",
          "type": "uint256"
        },
        {
          "internalType": "uint256",
          "name": "profit",
          "type": "uint256"
        },
        {
          "internalType": "uint256",
          "name": "start",
          "type": "uint256"
        },
        {
          "internalType": "uint256",
          "name": "finish",
          "type": "uint256"
        }
      ],
      "stateMutability": "view",
      "type": "function"
    },
    {
      "inputs": [
        {
          "internalType": "address",
          "name": "userAddress",
          "type": "address"
        }
      ],
      "name": "getUserDividends",
      "outputs": [
        {
          "internalType": "uint256",
          "name": "",
          "type": "uint256"
        }
      ],
      "stateMutability": "view",
      "type": "function"
    },
    {
      "inputs": [
        {
          "internalType": "address",
          "name": "userAddress",
          "type": "address"
        }
      ],
      "name": "getUserDownlineCount",
      "outputs": [
        {
          "internalType": "uint256",
          "name": "",
          "type": "uint256"
        },
        {
          "internalType": "uint256",
          "name": "",
          "type": "uint256"
        },
        {
          "internalType": "uint256",
          "name": "",
          "type": "uint256"
        }
      ],
      "stateMutability": "view",
      "type": "function"
    },
    {
      "inputs": [
        {
          "internalType": "address",
          "name": "userAddress",
          "type": "address"
        }
      ],
      "name": "getUserReferralBonus",
      "outputs": [
        {
          "internalType": "uint256",
          "name": "",
          "type": "uint256"
        }
      ],
      "stateMutability": "view",
      "type": "function"
    },
    {
      "inputs": [
        {
          "internalType": "address",
          "name": "userAddress",
          "type": "address"
        }
      ],
      "name": "getUserReferralTotalBonus",
      "outputs": [
        {
          "internalType": "uint256",
          "name": "",
          "type": "uint256"
        }
      ],
      "stateMutability": "view",
      "type": "function"
    },
    {
      "inputs": [
        {
          "internalType": "address",
          "name": "userAddress",
          "type": "address"
        }
      ],
      "name": "getUserReferralWithdrawn",
      "outputs": [
        {
          "internalType": "uint256",
          "name": "",
          "type": "uint256"
        }
      ],
      "stateMutability": "view",
      "type": "function"
    },
    {
      "inputs": [
        {
          "internalType": "address",
          "name": "userAddress",
          "type": "address"
        }
      ],
      "name": "getUserReferrer",
      "outputs": [
        {
          "internalType": "address",
          "name": "",
          "type": "address"
        }
      ],
      "stateMutability": "view",
      "type": "function"
    },
    {
      "inputs": [
        {
          "internalType": "address",
          "name": "userAddress",
          "type": "address"
        }
      ],
      "name": "getUserTotalDeposits",
      "outputs": [
        {
          "internalType": "uint256",
          "name": "amount",
          "type": "uint256"
        }
      ],
      "stateMutability": "view",
      "type": "function"
    },
    {
      "inputs": [
        {
          "internalType": "address",
          "name": "referrer",
          "type": "address"
        },
        {
          "internalType": "uint8",
          "name": "plan",
          "type": "uint8"
        }
      ],
      "name": "invest",
      "outputs": [],
      "stateMutability": "payable",
      "type": "function"
    },
    {
      "inputs": [],
      "name": "startUNIX",
      "outputs": [
        {
          "internalType": "uint256",
          "name": "",
          "type": "uint256"
        }
      ],
      "stateMutability": "view",
      "type": "function"
    },
    {
      "inputs": [],
      "name": "totalRefBonus",
      "outputs": [
        {
          "internalType": "uint256",
          "name": "",
          "type": "uint256"
        }
      ],
      "stateMutability": "view",
      "type": "function"
    },
    {
      "inputs": [],
      "name": "totalStaked",
      "outputs": [
        {
          "internalType": "uint256",
          "name": "",
          "type": "uint256"
        }
      ],
      "stateMutability": "view",
      "type": "function"
    },
    {
      "inputs": [],
      "name": "withdraw",
      "outputs": [],
      "stateMutability": "nonpayable",
      "type": "function"
    }
  ],
  "bytecode": "0x60806040526040518060600160405280603c60ff168152602001601e60ff168152602001600a60ff1681525060009060036200003d9291906200030e565b503480156200004b57600080fd5b5060405162002d3038038062002d30833981810160405281019062000071919062000429565b6200008282620002fb60201b60201c565b156200008d57600080fd5b600081116200009b57600080fd5b81600660006101000a81548173ffffffffffffffffffffffffffffffffffffffff021916908373ffffffffffffffffffffffffffffffffffffffff1602179055508060058190555060036040518060400160405280600e815260200160508152509080600181540180825580915050600190039060005260206000209060020201600090919091909150600082015181600001556020820151816001015550506003604051806040016040528060158152602001604b81525090806001815401808255809150506001900390600052602060002090600202016000909190919091506000820151816000015560208201518160010155505060036040518060400160405280601c8152602001604681525090806001815401808255809150506001900390600052602060002090600202016000909190919091506000820151816000015560208201518160010155505060036040518060400160405280600e815260200160508152509080600181540180825580915050600190039060005260206000209060020201600090919091909150600082015181600001556020820151816001015550506003604051806040016040528060158152602001604b81525090806001815401808255809150506001900390600052602060002090600202016000909190919091506000820151816000015560208201518160010155505060036040518060400160405280601c81526020016046815250908060018154018082558091505060019003906000526020600020906002020160009091909190915060008201518160000155602082015181600101555050505062000470565b600080823b905060008111915050919050565b82805482825590600052602060002090810192821562000352579160200282015b8281111562000351578251829060ff169055916020019190600101906200032f565b5b50905062000361919062000365565b5090565b5b808211156200038057600081600090555060010162000366565b5090565b600080fd5b600073ffffffffffffffffffffffffffffffffffffffff82169050919050565b6000620003b68262000389565b9050919050565b620003c881620003a9565b8114620003d457600080fd5b50565b600081519050620003e881620003bd565b92915050565b6000819050919050565b6200040381620003ee565b81146200040f57600080fd5b50565b6000815190506200042381620003f8565b92915050565b6000806040838503121562000443576200044262000384565b5b60006200045385828601620003d7565b9250506020620004668582860162000412565b9150509250929050565b6128b080620004806000396000f3fe6080604052600436106101b75760003560e01c80636bb18556116100ec578063a8aeb6c21161008a578063c234123811610064578063c234123814610695578063d7ffca91146106c0578063e262113e146106fd578063e85abe0914610728576101b7565b8063a8aeb6c2146105d8578063aecaa63414610615578063c0806b0314610653576101b7565b8063817b1cd2116100c6578063817b1cd21461051a57806397c0262a146105455780639bff5ddb14610570578063a51b95331461059b576101b7565b80636bb18556146104755780636f9fb98a146104b25780637e3abeea146104dd576101b7565b806348c3720311610159578063581c5ae611610133578063581c5ae6146103b25780635936cf61146103ce578063600d20ce1461040d57806369b11dd51461044a576101b7565b806348c372031461031f57806348d44bd11461035c57806357fc86b414610387576101b7565b8063153ab9df11610195578063153ab9df1461026357806332bc298c146102a057806336144c9a146102cb5780633ccfd60b14610308576101b7565b806301c234a8146101bc57806303a93c0c146101e7578063040a772e14610226575b600080fd5b3480156101c857600080fd5b506101d1610765565b6040516101de9190612005565b60405180910390f35b3480156101f357600080fd5b5061020e60048036038101906102099190612083565b61076b565b60405161021d939291906120b0565b60405180910390f35b34801561023257600080fd5b5061024d60048036038101906102489190612083565b610882565b60405161025a9190612005565b60405180910390f35b34801561026f57600080fd5b5061028a60048036038101906102859190612083565b610b7e565b6040516102979190612005565b60405180910390f35b3480156102ac57600080fd5b506102b5610baa565b6040516102c29190612005565b60405180910390f35b3480156102d757600080fd5b506102f260048036038101906102ed9190612083565b610bb1565b6040516102ff91906120f6565b60405180910390f35b34801561031457600080fd5b5061031d610c1d565b005b34801561032b57600080fd5b5061034660048036038101906103419190612083565b610dde565b6040516103539190612005565b60405180910390f35b34801561036857600080fd5b50610371610e2a565b60405161037e9190612005565b60405180910390f35b34801561039357600080fd5b5061039c610e2f565b6040516103a99190612005565b60405180910390f35b6103cc60048036038101906103c7919061214a565b610e34565b005b3480156103da57600080fd5b506103f560048036038101906103f091906121b6565b61177b565b604051610404939291906120b0565b60405180910390f35b34801561041957600080fd5b50610434600480360381019061042f91906121f6565b6118fa565b6040516104419190612005565b60405180910390f35b34801561045657600080fd5b5061045f61191e565b60405161046c9190612005565b60405180910390f35b34801561048157600080fd5b5061049c60048036038101906104979190612083565b611924565b6040516104a99190612005565b60405180910390f35b3480156104be57600080fd5b506104c76119c4565b6040516104d49190612005565b60405180910390f35b3480156104e957600080fd5b5061050460048036038101906104ff9190612083565b6119cc565b6040516105119190612005565b60405180910390f35b34801561052657600080fd5b5061052f611ab4565b60405161053c9190612005565b60405180910390f35b34801561055157600080fd5b5061055a611aba565b6040516105679190612244565b60405180910390f35b34801561057c57600080fd5b50610585611ae0565b6040516105929190612005565b60405180910390f35b3480156105a757600080fd5b506105c260048036038101906105bd919061225f565b611ae6565b6040516105cf9190612005565b60405180910390f35b3480156105e457600080fd5b506105ff60048036038101906105fa9190612083565b611ba1565b60405161060c9190612005565b60405180910390f35b34801561062157600080fd5b5061063c6004803603810190610637919061225f565b611bf0565b60405161064a92919061228c565b60405180910390f35b34801561065f57600080fd5b5061067a600480360381019061067591906122b5565b611c4e565b60405161068c96959493929190612304565b60405180910390f35b3480156106a157600080fd5b506106aa611dae565b6040516106b79190612005565b60405180910390f35b3480156106cc57600080fd5b506106e760048036038101906106e29190612083565b611db4565b6040516106f49190612005565b60405180910390f35b34801561070957600080fd5b50610712611e00565b60405161071f9190612005565b60405180910390f35b34801561073457600080fd5b5061074f600480360381019061074a9190612083565b611e0b565b60405161075c9190612005565b60405180910390f35b6103e881565b6000806000600460008573ffffffffffffffffffffffffffffffffffffffff1673ffffffffffffffffffffffffffffffffffffffff1681526020019081526020016000206003016000600381106107c5576107c4612365565b5b0154600460008673ffffffffffffffffffffffffffffffffffffffff1673ffffffffffffffffffffffffffffffffffffffff16815260200190815260200160002060030160016003811061081c5761081b612365565b5b0154600460008773ffffffffffffffffffffffffffffffffffffffff1673ffffffffffffffffffffffffffffffffffffffff16815260200190815260200160002060030160026003811061087357610872612365565b5b01549250925092509193909250565b600080600460008473ffffffffffffffffffffffffffffffffffffffff1673ffffffffffffffffffffffffffffffffffffffff1681526020019081526020016000209050600080600090505b8260000180549050811015610b73578260000181815481106108f3576108f2612365565b5b90600052602060002090600602016005015483600101541015610b6057600383600001828154811061092857610927612365565b5b906000526020600020906006020160000160009054906101000a900460ff1660ff161015610af25760006109c76103e86109b986600001858154811061097157610970612365565b5b90600052602060002090600602016001015487600001868154811061099957610998612365565b5b906000526020600020906006020160020154611e5790919063ffffffff16565b611ed190919063ffffffff16565b9050600084600101548560000184815481106109e6576109e5612365565b5b90600052602060002090600602016004015411610a07578460010154610a30565b846000018381548110610a1d57610a1c612365565b5b9060005260206000209060060201600401545b9050600042866000018581548110610a4b57610a4a612365565b5b90600052602060002090600602016005015410610a685742610a91565b856000018481548110610a7e57610a7d612365565b5b9060005260206000209060060201600501545b905080821015610aea57610ae7610ad862015180610aca610abb8686611f2f90919063ffffffff16565b87611e5790919063ffffffff16565b611ed190919063ffffffff16565b86611f8e90919063ffffffff16565b94505b505050610b5f565b826000018181548110610b0857610b07612365565b5b906000526020600020906006020160050154421115610b5e57610b5b836000018281548110610b3a57610b39612365565b5b90600052602060002090600602016003015483611f8e90919063ffffffff16565b91505b5b5b8080610b6b906123c3565b9150506108ce565b508092505050919050565b6000610ba3610b8c83610882565b610b9584611e0b565b611f8e90919063ffffffff16565b9050919050565b6201518081565b6000600460008373ffffffffffffffffffffffffffffffffffffffff1673ffffffffffffffffffffffffffffffffffffffff16815260200190815260200160002060020160009054906101000a900473ffffffffffffffffffffffffffffffffffffffff169050919050565b6000600460003373ffffffffffffffffffffffffffffffffffffffff1673ffffffffffffffffffffffffffffffffffffffff16815260200190815260200160002090506000610c6b33610882565b90506000610c98612710610c8a6103e885611e5790919063ffffffff16565b611ed190919063ffffffff16565b9050610cad8183611f2f90919063ffffffff16565b91506000610cba33611e0b565b90506000811115610ce55760008460060181905550610ce28184611f8e90919063ffffffff16565b92505b60008311610d28576040517f08c379a0000000000000000000000000000000000000000000000000000000008152600401610d1f90612468565b60405180910390fd5b600047905083811015610d39578093505b4285600101819055503373ffffffffffffffffffffffffffffffffffffffff166108fc859081150290604051600060405180830381858888f19350505050158015610d88573d6000803e3d6000fd5b503373ffffffffffffffffffffffffffffffffffffffff167f7084f5476618d8e60b11ef0d7d3f06914655adb8793e28ff7f018d4c76d505d585604051610dcf9190612005565b60405180910390a25050505050565b6000600460008373ffffffffffffffffffffffffffffffffffffffff1673ffffffffffffffffffffffffffffffffffffffff168152602001908152602001600020600701549050919050565b607881565b600381565b66b1a2bc2ec50000341015610e7e576040517f08c379a0000000000000000000000000000000000000000000000000000000008152600401610e75906124d4565b60405180910390fd5b60068160ff1610610ec4576040517f08c379a0000000000000000000000000000000000000000000000000000000008152600401610ebb90612540565b60405180910390fd5b6000610eee6103e8610ee0607834611e5790919063ffffffff16565b611ed190919063ffffffff16565b9050600660009054906101000a900473ffffffffffffffffffffffffffffffffffffffff1673ffffffffffffffffffffffffffffffffffffffff166108fc829081150290604051600060405180830381858888f19350505050158015610f58573d6000803e3d6000fd5b503373ffffffffffffffffffffffffffffffffffffffff167f2899dc8c12def1caa9accb64257cf2fd9f960f21bb27a560a757eae3c2ec43c182604051610f9f9190612005565b60405180910390a26000600460003373ffffffffffffffffffffffffffffffffffffffff1673ffffffffffffffffffffffffffffffffffffffff1681526020019081526020016000209050600073ffffffffffffffffffffffffffffffffffffffff168160020160009054906101000a900473ffffffffffffffffffffffffffffffffffffffff1673ffffffffffffffffffffffffffffffffffffffff16036112bc576000600460008673ffffffffffffffffffffffffffffffffffffffff1673ffffffffffffffffffffffffffffffffffffffff168152602001908152602001600020600001805490501180156110c357503373ffffffffffffffffffffffffffffffffffffffff168473ffffffffffffffffffffffffffffffffffffffff1614155b1561110c57838160020160006101000a81548173ffffffffffffffffffffffffffffffffffffffff021916908373ffffffffffffffffffffffffffffffffffffffff1602179055505b60008160020160009054906101000a900473ffffffffffffffffffffffffffffffffffffffff16905060005b60038110156112b957600073ffffffffffffffffffffffffffffffffffffffff168273ffffffffffffffffffffffffffffffffffffffff16146112a1576111de6001600460008573ffffffffffffffffffffffffffffffffffffffff1673ffffffffffffffffffffffffffffffffffffffff16815260200190815260200160002060030183600381106111ce576111cd612365565b5b0154611f8e90919063ffffffff16565b600460008473ffffffffffffffffffffffffffffffffffffffff1673ffffffffffffffffffffffffffffffffffffffff168152602001908152602001600020600301826003811061123257611231612365565b5b0181905550600460008373ffffffffffffffffffffffffffffffffffffffff1673ffffffffffffffffffffffffffffffffffffffff16815260200190815260200160002060020160009054906101000a900473ffffffffffffffffffffffffffffffffffffffff1691506112a6565b6112b9565b80806112b1906123c3565b915050611138565b50505b600073ffffffffffffffffffffffffffffffffffffffff168160020160009054906101000a900473ffffffffffffffffffffffffffffffffffffffff1673ffffffffffffffffffffffffffffffffffffffff16146115e85760008160020160009054906101000a900473ffffffffffffffffffffffffffffffffffffffff16905060005b60038110156115e557600073ffffffffffffffffffffffffffffffffffffffff168273ffffffffffffffffffffffffffffffffffffffff16146115cd5760006113c46103e86113b66000858154811061139c5761139b612365565b5b906000526020600020015434611e5790919063ffffffff16565b611ed190919063ffffffff16565b905061141b81600460008673ffffffffffffffffffffffffffffffffffffffff1673ffffffffffffffffffffffffffffffffffffffff16815260200190815260200160002060060154611f8e90919063ffffffff16565b600460008573ffffffffffffffffffffffffffffffffffffffff1673ffffffffffffffffffffffffffffffffffffffff168152602001908152602001600020600601819055506114b681600460008673ffffffffffffffffffffffffffffffffffffffff1673ffffffffffffffffffffffffffffffffffffffff16815260200190815260200160002060070154611f8e90919063ffffffff16565b600460008573ffffffffffffffffffffffffffffffffffffffff1673ffffffffffffffffffffffffffffffffffffffff16815260200190815260200160002060070181905550813373ffffffffffffffffffffffffffffffffffffffff168473ffffffffffffffffffffffffffffffffffffffff167fd41f7e766eebcc7ff42b11ac8691bdf864db4afc0c55e71d629d54edce460d988460405161155a9190612005565b60405180910390a4600460008473ffffffffffffffffffffffffffffffffffffffff1673ffffffffffffffffffffffffffffffffffffffff16815260200190815260200160002060020160009054906101000a900473ffffffffffffffffffffffffffffffffffffffff169250506115d2565b6115e5565b80806115dd906123c3565b915050611340565b50505b6000816000018054905003611638574281600101819055507f9fd565cd14c3c391679eb0cad12a14dcf7534e9d3462bcb9b67a098a9bbbc24a3360405161162f91906120f6565b60405180910390a15b6000806000611647863461177b565b925092509250836000016040518060c001604052808860ff16815260200185815260200134815260200184815260200142815260200183815250908060018154018082558091505060019003906000526020600020906006020160009091909190915060008201518160000160006101000a81548160ff021916908360ff1602179055506020820151816001015560408201518160020155606082015181600301556080820151816004015560a08201518160050155505061171434600154611f8e90919063ffffffff16565b6001819055503373ffffffffffffffffffffffffffffffffffffffff167f84e02daa69bdb087c9fe8d3041abca495512cb14e723070f6d1d4efface82e5d87853486428760405161176a96959493929190612304565b60405180910390a250505050505050565b600080600061178985611ae6565b925060038560ff1610156117ff576117f860038660ff16815481106117b1576117b0612365565b5b9060005260206000209060020201600001546117ea6103e86117dc8789611e5790919063ffffffff16565b611ed190919063ffffffff16565b611e5790919063ffffffff16565b91506118a1565b60068560ff1610156118a05760005b60038660ff168154811061182557611824612365565b5b90600052602060002090600202016000015481101561189e5761188961187a6103e861186c8761185e888b611f8e90919063ffffffff16565b611e5790919063ffffffff16565b611ed190919063ffffffff16565b84611f8e90919063ffffffff16565b92508080611896906123c3565b91505061180e565b505b5b6118f16118e26201518060038860ff16815481106118c2576118c1612365565b5b906000526020600020906002020160000154611e5790919063ffffffff16565b42611f8e90919063ffffffff16565b90509250925092565b6000818154811061190a57600080fd5b906000526020600020016000915090505481565b60025481565b60006119bd600460008473ffffffffffffffffffffffffffffffffffffffff1673ffffffffffffffffffffffffffffffffffffffff16815260200190815260200160002060060154600460008573ffffffffffffffffffffffffffffffffffffffff1673ffffffffffffffffffffffffffffffffffffffff16815260200190815260200160002060070154611f2f90919063ffffffff16565b9050919050565b600047905090565b600080600090505b600460008473ffffffffffffffffffffffffffffffffffffffff1673ffffffffffffffffffffffffffffffffffffffff16815260200190815260200160002060000180549050811015611aae57611a99600460008573ffffffffffffffffffffffffffffffffffffffff1673ffffffffffffffffffffffffffffffffffffffff1681526020019081526020016000206000018281548110611a7857611a77612365565b5b90600052602060002090600602016002015483611f8e90919063ffffffff16565b91508080611aa6906123c3565b9150506119d4565b50919050565b60015481565b600660009054906101000a900473ffffffffffffffffffffffffffffffffffffffff1681565b6103e881565b6000600554421115611b7057611b69611b3262015180611b24611b1460055442611f2f90919063ffffffff16565b6003611e5790919063ffffffff16565b611ed190919063ffffffff16565b60038460ff1681548110611b4957611b48612365565b5b906000526020600020906002020160010154611f8e90919063ffffffff16565b9050611b9c565b60038260ff1681548110611b8757611b86612365565b5b90600052602060002090600202016001015490505b919050565b6000600460008373ffffffffffffffffffffffffffffffffffffffff1673ffffffffffffffffffffffffffffffffffffffff168152602001908152602001600020600001805490509050919050565b60008060038360ff1681548110611c0a57611c09612365565b5b906000526020600020906002020160000154915060038360ff1681548110611c3557611c34612365565b5b9060005260206000209060020201600101549050915091565b6000806000806000806000600460008a73ffffffffffffffffffffffffffffffffffffffff1673ffffffffffffffffffffffffffffffffffffffff1681526020019081526020016000209050806000018881548110611cb057611caf612365565b5b906000526020600020906006020160000160009054906101000a900460ff169650806000018881548110611ce757611ce6612365565b5b9060005260206000209060060201600101549550806000018881548110611d1157611d10612365565b5b9060005260206000209060060201600201549450806000018881548110611d3b57611d3a612365565b5b9060005260206000209060060201600301549350806000018881548110611d6557611d64612365565b5b9060005260206000209060060201600401549250806000018881548110611d8f57611d8e612365565b5b9060005260206000209060060201600501549150509295509295509295565b60055481565b6000600460008373ffffffffffffffffffffffffffffffffffffffff1673ffffffffffffffffffffffffffffffffffffffff168152602001908152602001600020600101549050919050565b66b1a2bc2ec5000081565b6000600460008373ffffffffffffffffffffffffffffffffffffffff1673ffffffffffffffffffffffffffffffffffffffff168152602001908152602001600020600601549050919050565b6000808303611e695760009050611ecb565b60008284611e779190612560565b9050828482611e8691906125e9565b14611ec6576040517f08c379a0000000000000000000000000000000000000000000000000000000008152600401611ebd9061268c565b60405180910390fd5b809150505b92915050565b6000808211611f15576040517f08c379a0000000000000000000000000000000000000000000000000000000008152600401611f0c906126f8565b60405180910390fd5b60008284611f2391906125e9565b90508091505092915050565b600082821115611f74576040517f08c379a0000000000000000000000000000000000000000000000000000000008152600401611f6b90612764565b60405180910390fd5b60008284611f829190612784565b90508091505092915050565b6000808284611f9d91906127b8565b905083811015611fe2576040517f08c379a0000000000000000000000000000000000000000000000000000000008152600401611fd99061285a565b60405180910390fd5b8091505092915050565b6000819050919050565b611fff81611fec565b82525050565b600060208201905061201a6000830184611ff6565b92915050565b600080fd5b600073ffffffffffffffffffffffffffffffffffffffff82169050919050565b600061205082612025565b9050919050565b61206081612045565b811461206b57600080fd5b50565b60008135905061207d81612057565b92915050565b60006020828403121561209957612098612020565b5b60006120a78482850161206e565b91505092915050565b60006060820190506120c56000830186611ff6565b6120d26020830185611ff6565b6120df6040830184611ff6565b949350505050565b6120f081612045565b82525050565b600060208201905061210b60008301846120e7565b92915050565b600060ff82169050919050565b61212781612111565b811461213257600080fd5b50565b6000813590506121448161211e565b92915050565b6000806040838503121561216157612160612020565b5b600061216f8582860161206e565b925050602061218085828601612135565b9150509250929050565b61219381611fec565b811461219e57600080fd5b50565b6000813590506121b08161218a565b92915050565b600080604083850312156121cd576121cc612020565b5b60006121db85828601612135565b92505060206121ec858286016121a1565b9150509250929050565b60006020828403121561220c5761220b612020565b5b600061221a848285016121a1565b91505092915050565b600061222e82612025565b9050919050565b61223e81612223565b82525050565b60006020820190506122596000830184612235565b92915050565b60006020828403121561227557612274612020565b5b600061228384828501612135565b91505092915050565b60006040820190506122a16000830185611ff6565b6122ae6020830184611ff6565b9392505050565b600080604083850312156122cc576122cb612020565b5b60006122da8582860161206e565b92505060206122eb858286016121a1565b9150509250929050565b6122fe81612111565b82525050565b600060c08201905061231960008301896122f5565b6123266020830188611ff6565b6123336040830187611ff6565b6123406060830186611ff6565b61234d6080830185611ff6565b61235a60a0830184611ff6565b979650505050505050565b7f4e487b7100000000000000000000000000000000000000000000000000000000600052603260045260246000fd5b7f4e487b7100000000000000000000000000000000000000000000000000000000600052601160045260246000fd5b60006123ce82611fec565b91507fffffffffffffffffffffffffffffffffffffffffffffffffffffffffffffffff8203612400576123ff612394565b5b600182019050919050565b600082825260208201905092915050565b7f5573657220686173206e6f206469766964656e64730000000000000000000000600082015250565b600061245260158361240b565b915061245d8261241c565b602082019050919050565b6000602082019050818103600083015261248181612445565b9050919050565b7f746f6f20736d616c6c0000000000000000000000000000000000000000000000600082015250565b60006124be60098361240b565b91506124c982612488565b602082019050919050565b600060208201905081810360008301526124ed816124b1565b9050919050565b7f496e76616c696420706c616e0000000000000000000000000000000000000000600082015250565b600061252a600c8361240b565b9150612535826124f4565b602082019050919050565b600060208201905081810360008301526125598161251d565b9050919050565b600061256b82611fec565b915061257683611fec565b9250817fffffffffffffffffffffffffffffffffffffffffffffffffffffffffffffffff04831182151516156125af576125ae612394565b5b828202905092915050565b7f4e487b7100000000000000000000000000000000000000000000000000000000600052601260045260246000fd5b60006125f482611fec565b91506125ff83611fec565b92508261260f5761260e6125ba565b5b828204905092915050565b7f536166654d6174683a206d756c7469706c69636174696f6e206f766572666c6f60008201527f7700000000000000000000000000000000000000000000000000000000000000602082015250565b600061267660218361240b565b91506126818261261a565b604082019050919050565b600060208201905081810360008301526126a581612669565b9050919050565b7f536166654d6174683a206469766973696f6e206279207a65726f000000000000600082015250565b60006126e2601a8361240b565b91506126ed826126ac565b602082019050919050565b60006020820190508181036000830152612711816126d5565b9050919050565b7f536166654d6174683a207375627472616374696f6e206f766572666c6f770000600082015250565b600061274e601e8361240b565b915061275982612718565b602082019050919050565b6000602082019050818103600083015261277d81612741565b9050919050565b600061278f82611fec565b915061279a83611fec565b9250828210156127ad576127ac612394565b5b828203905092915050565b60006127c382611fec565b91506127ce83611fec565b9250827fffffffffffffffffffffffffffffffffffffffffffffffffffffffffffffffff0382111561280357612802612394565b5b828201905092915050565b7f536166654d6174683a206164646974696f6e206f766572666c6f770000000000600082015250565b6000612844601b8361240b565b915061284f8261280e565b602082019050919050565b6000602082019050818103600083015261287381612837565b905091905056fea2646970667358221220adeb4b90f4e81a3ae77cfc65a7fd246f9c9b8fe9bc95f3345eba443c5046b10064736f6c634300080d0033",
  "linkReferences": {},
  "deployedLinkReferences": {}
}