{
  "_format": "hh-sol-artifact-1",
  "contractName": "AVAXAPE",
  "sourceName": "contracts/newContract.sol",
  "abi": [
    {
      "inputs": [
        {
          "internalType": "address payable",
          "name": "wallet",
          "type": "address"
        },
        {
          "internalType": "uint256",
          "name": "startDate",
          "type": "uint256"
        }
      ],
      "stateMutability": "nonpayable",
      "type": "constructor"
    },
    {
      "anonymous": false,
      "inputs": [
        {
          "indexed": true,
          "internalType": "address",
          "name": "user",
          "type": "address"
        },
        {
          "indexed": false,
          "internalType": "uint256",
          "name": "totalAmount",
          "type": "uint256"
        }
      ],
      "name": "FeePayed",
      "type": "event"
    },
    {
      "anonymous": false,
      "inputs": [
        {
          "indexed": true,
          "internalType": "address",
          "name": "user",
          "type": "address"
        },
        {
          "indexed": false,
          "internalType": "uint8",
          "name": "plan",
          "type": "uint8"
        },
        {
          "indexed": false,
          "internalType": "uint256",
          "name": "percent",
          "type": "uint256"
        },
        {
          "indexed": false,
          "internalType": "uint256",
          "name": "amount",
          "type": "uint256"
        },
        {
          "indexed": false,
          "internalType": "uint256",
          "name": "profit",
          "type": "uint256"
        },
        {
          "indexed": false,
          "internalType": "uint256",
          "name": "start",
          "type": "uint256"
        },
        {
          "indexed": false,
          "internalType": "uint256",
          "name": "finish",
          "type": "uint256"
        }
      ],
      "name": "NewDeposit",
      "type": "event"
    },
    {
      "anonymous": false,
      "inputs": [
        {
          "indexed": false,
          "internalType": "address",
          "name": "user",
          "type": "address"
        }
      ],
      "name": "Newbie",
      "type": "event"
    },
    {
      "anonymous": false,
      "inputs": [
        {
          "indexed": true,
          "internalType": "address",
          "name": "referrer",
          "type": "address"
        },
        {
          "indexed": true,
          "internalType": "address",
          "name": "referral",
          "type": "address"
        },
        {
          "indexed": true,
          "internalType": "uint256",
          "name": "level",
          "type": "uint256"
        },
        {
          "indexed": false,
          "internalType": "uint256",
          "name": "amount",
          "type": "uint256"
        }
      ],
      "name": "RefBonus",
      "type": "event"
    },
    {
      "anonymous": false,
      "inputs": [
        {
          "indexed": true,
          "internalType": "address",
          "name": "user",
          "type": "address"
        },
        {
          "indexed": false,
          "internalType": "uint256",
          "name": "amount",
          "type": "uint256"
        }
      ],
      "name": "Withdrawn",
      "type": "event"
    },
    {
      "inputs": [],
      "name": "INVEST_MIN_AMOUNT",
      "outputs": [
        {
          "internalType": "uint256",
          "name": "",
          "type": "uint256"
        }
      ],
      "stateMutability": "view",
      "type": "function"
    },
    {
      "inputs": [],
      "name": "PERCENTS_DIVIDER",
      "outputs": [
        {
          "internalType": "uint256",
          "name": "",
          "type": "uint256"
        }
      ],
      "stateMutability": "view",
      "type": "function"
    },
    {
      "inputs": [],
      "name": "PERCENT_STEP",
      "outputs": [
        {
          "internalType": "uint256",
          "name": "",
          "type": "uint256"
        }
      ],
      "stateMutability": "view",
      "type": "function"
    },
    {
      "inputs": [],
      "name": "PROJECT_FEE",
      "outputs": [
        {
          "internalType": "uint256",
          "name": "",
          "type": "uint256"
        }
      ],
      "stateMutability": "view",
      "type": "function"
    },
    {
      "inputs": [
        {
          "internalType": "uint256",
          "name": "",
          "type": "uint256"
        }
      ],
      "name": "REFERRAL_PERCENTS",
      "outputs": [
        {
          "internalType": "uint256",
          "name": "",
          "type": "uint256"
        }
      ],
      "stateMutability": "view",
      "type": "function"
    },
    {
      "inputs": [],
      "name": "TIME_STEP",
      "outputs": [
        {
          "internalType": "uint256",
          "name": "",
          "type": "uint256"
        }
      ],
      "stateMutability": "view",
      "type": "function"
    },
    {
      "inputs": [],
      "name": "WITHDRAW_FEE",
      "outputs": [
        {
          "internalType": "uint256",
          "name": "",
          "type": "uint256"
        }
      ],
      "stateMutability": "view",
      "type": "function"
    },
    {
      "inputs": [],
      "name": "commissionWallet",
      "outputs": [
        {
          "internalType": "address payable",
          "name": "",
          "type": "address"
        }
      ],
      "stateMutability": "view",
      "type": "function"
    },
    {
      "inputs": [],
      "name": "getContractBalance",
      "outputs": [
        {
          "internalType": "uint256",
          "name": "",
          "type": "uint256"
        }
      ],
      "stateMutability": "view",
      "type": "function"
    },
    {
      "inputs": [
        {
          "internalType": "uint8",
          "name": "plan",
          "type": "uint8"
        }
      ],
      "name": "getPercent",
      "outputs": [
        {
          "internalType": "uint256",
          "name": "",
          "type": "uint256"
        }
      ],
      "stateMutability": "view",
      "type": "function"
    },
    {
      "inputs": [
        {
          "internalType": "uint8",
          "name": "plan",
          "type": "uint8"
        }
      ],
      "name": "getPlanInfo",
      "outputs": [
        {
          "internalType": "uint256",
          "name": "time",
          "type": "uint256"
        },
        {
          "internalType": "uint256",
          "name": "percent",
          "type": "uint256"
        }
      ],
      "stateMutability": "view",
      "type": "function"
    },
    {
      "inputs": [
        {
          "internalType": "uint8",
          "name": "plan",
          "type": "uint8"
        },
        {
          "internalType": "uint256",
          "name": "deposit",
          "type": "uint256"
        }
      ],
      "name": "getResult",
      "outputs": [
        {
          "internalType": "uint256",
          "name": "percent",
          "type": "uint256"
        },
        {
          "internalType": "uint256",
          "name": "profit",
          "type": "uint256"
        },
        {
          "internalType": "uint256",
          "name": "finish",
          "type": "uint256"
        }
      ],
      "stateMutability": "view",
      "type": "function"
    },
    {
      "inputs": [
        {
          "internalType": "address",
          "name": "userAddress",
          "type": "address"
        }
      ],
      "name": "getUserAmountOfDeposits",
      "outputs": [
        {
          "internalType": "uint256",
          "name": "",
          "type": "uint256"
        }
      ],
      "stateMutability": "view",
      "type": "function"
    },
    {
      "inputs": [
        {
          "internalType": "address",
          "name": "userAddress",
          "type": "address"
        }
      ],
      "name": "getUserAvailable",
      "outputs": [
        {
          "internalType": "uint256",
          "name": "",
          "type": "uint256"
        }
      ],
      "stateMutability": "view",
      "type": "function"
    },
    {
      "inputs": [
        {
          "internalType": "address",
          "name": "userAddress",
          "type": "address"
        }
      ],
      "name": "getUserCheckpoint",
      "outputs": [
        {
          "internalType": "uint256",
          "name": "",
          "type": "uint256"
        }
      ],
      "stateMutability": "view",
      "type": "function"
    },
    {
      "inputs": [
        {
          "internalType": "address",
          "name": "userAddress",
          "type": "address"
        },
        {
          "internalType": "uint256",
          "name": "index",
          "type": "uint256"
        }
      ],
      "name": "getUserDepositInfo",
      "outputs": [
        {
          "internalType": "uint8",
          "name": "plan",
          "type": "uint8"
        },
        {
          "internalType": "uint256",
          "name": "percent",
          "type": "uint256"
        },
        {
          "internalType": "uint256",
          "name": "amount",
          "type": "uint256"
        },
        {
          "internalType": "uint256",
          "name": "profit",
          "type": "uint256"
        },
        {
          "internalType": "uint256",
          "name": "start",
          "type": "uint256"
        },
        {
          "internalType": "uint256",
          "name": "finish",
          "type": "uint256"
        }
      ],
      "stateMutability": "view",
      "type": "function"
    },
    {
      "inputs": [
        {
          "internalType": "address",
          "name": "userAddress",
          "type": "address"
        }
      ],
      "name": "getUserDividends",
      "outputs": [
        {
          "internalType": "uint256",
          "name": "",
          "type": "uint256"
        }
      ],
      "stateMutability": "view",
      "type": "function"
    },
    {
      "inputs": [
        {
          "internalType": "address",
          "name": "userAddress",
          "type": "address"
        }
      ],
      "name": "getUserDownlineCount",
      "outputs": [
        {
          "internalType": "uint256",
          "name": "",
          "type": "uint256"
        },
        {
          "internalType": "uint256",
          "name": "",
          "type": "uint256"
        },
        {
          "internalType": "uint256",
          "name": "",
          "type": "uint256"
        }
      ],
      "stateMutability": "view",
      "type": "function"
    },
    {
      "inputs": [
        {
          "internalType": "address",
          "name": "userAddress",
          "type": "address"
        }
      ],
      "name": "getUserReferralBonus",
      "outputs": [
        {
          "internalType": "uint256",
          "name": "",
          "type": "uint256"
        }
      ],
      "stateMutability": "view",
      "type": "function"
    },
    {
      "inputs": [
        {
          "internalType": "address",
          "name": "userAddress",
          "type": "address"
        }
      ],
      "name": "getUserReferralTotalBonus",
      "outputs": [
        {
          "internalType": "uint256",
          "name": "",
          "type": "uint256"
        }
      ],
      "stateMutability": "view",
      "type": "function"
    },
    {
      "inputs": [
        {
          "internalType": "address",
          "name": "userAddress",
          "type": "address"
        }
      ],
      "name": "getUserReferralWithdrawn",
      "outputs": [
        {
          "internalType": "uint256",
          "name": "",
          "type": "uint256"
        }
      ],
      "stateMutability": "view",
      "type": "function"
    },
    {
      "inputs": [
        {
          "internalType": "address",
          "name": "userAddress",
          "type": "address"
        }
      ],
      "name": "getUserReferrer",
      "outputs": [
        {
          "internalType": "address",
          "name": "",
          "type": "address"
        }
      ],
      "stateMutability": "view",
      "type": "function"
    },
    {
      "inputs": [
        {
          "internalType": "address",
          "name": "userAddress",
          "type": "address"
        }
      ],
      "name": "getUserTotalDeposits",
      "outputs": [
        {
          "internalType": "uint256",
          "name": "amount",
          "type": "uint256"
        }
      ],
      "stateMutability": "view",
      "type": "function"
    },
    {
      "inputs": [
        {
          "internalType": "address",
          "name": "referrer",
          "type": "address"
        },
        {
          "internalType": "uint8",
          "name": "plan",
          "type": "uint8"
        }
      ],
      "name": "invest",
      "outputs": [],
      "stateMutability": "payable",
      "type": "function"
    },
    {
      "inputs": [],
      "name": "launch",
      "outputs": [],
      "stateMutability": "nonpayable",
      "type": "function"
    },
    {
      "inputs": [],
      "name": "startUNIX",
      "outputs": [
        {
          "internalType": "uint256",
          "name": "",
          "type": "uint256"
        }
      ],
      "stateMutability": "view",
      "type": "function"
    },
    {
      "inputs": [],
      "name": "totalRefBonus",
      "outputs": [
        {
          "internalType": "uint256",
          "name": "",
          "type": "uint256"
        }
      ],
      "stateMutability": "view",
      "type": "function"
    },
    {
      "inputs": [],
      "name": "totalStaked",
      "outputs": [
        {
          "internalType": "uint256",
          "name": "",
          "type": "uint256"
        }
      ],
      "stateMutability": "view",
      "type": "function"
    },
    {
      "inputs": [],
      "name": "withdraw",
      "outputs": [],
      "stateMutability": "nonpayable",
      "type": "function"
    }
  ],
  "bytecode": "0x60806040526040518060600160405280603c60ff168152602001601e60ff168152602001600a60ff1681525060009060036200003d9291906200038e565b503480156200004b57600080fd5b5060405162002ff438038062002ff48339818101604052810190620000719190620004a9565b62000082826200031860201b60201c565b156200008d57600080fd5b600081116200009b57600080fd5b81600660006101000a81548173ffffffffffffffffffffffffffffffffffffffff021916908373ffffffffffffffffffffffffffffffffffffffff160217905550620000fa6301e13380426200032b60201b62001f201790919060201c565b60058190555060036040518060400160405280600a8152602001606e81525090806001815401808255809150506001900390600052602060002090600202016000909190919091506000820151816000015560208201518160010155505060036040518060400160405280600f815260200160648152509080600181540180825580915050600190039060005260206000209060020201600090919091909150600082015181600001556020820151816001015550506003604051806040016040528060148152602001605a81525090806001815401808255809150506001900390600052602060002090600202016000909190919091506000820151816000015560208201518160010155505060036040518060400160405280600a8152602001606e81525090806001815401808255809150506001900390600052602060002090600202016000909190919091506000820151816000015560208201518160010155505060036040518060400160405280600f815260200160648152509080600181540180825580915050600190039060005260206000209060020201600090919091909150600082015181600001556020820151816001015550506003604051806040016040528060148152602001605a8152509080600181540180825580915050600190039060005260206000209060020201600090919091909150600082015181600001556020820151816001015550505050620005ff565b600080823b905060008111915050919050565b60008082846200033c91906200051f565b90508381101562000384576040517f08c379a00000000000000000000000000000000000000000000000000000000081526004016200037b90620005dd565b60405180910390fd5b8091505092915050565b828054828255906000526020600020908101928215620003d2579160200282015b82811115620003d1578251829060ff16905591602001919060010190620003af565b5b509050620003e19190620003e5565b5090565b5b8082111562000400576000816000905550600101620003e6565b5090565b600080fd5b600073ffffffffffffffffffffffffffffffffffffffff82169050919050565b6000620004368262000409565b9050919050565b620004488162000429565b81146200045457600080fd5b50565b60008151905062000468816200043d565b92915050565b6000819050919050565b62000483816200046e565b81146200048f57600080fd5b50565b600081519050620004a38162000478565b92915050565b60008060408385031215620004c357620004c262000404565b5b6000620004d38582860162000457565b9250506020620004e68582860162000492565b9150509250929050565b7f4e487b7100000000000000000000000000000000000000000000000000000000600052601160045260246000fd5b60006200052c826200046e565b915062000539836200046e565b9250827fffffffffffffffffffffffffffffffffffffffffffffffffffffffffffffffff03821115620005715762000570620004f0565b5b828201905092915050565b600082825260208201905092915050565b7f536166654d6174683a206164646974696f6e206f766572666c6f770000000000600082015250565b6000620005c5601b836200057c565b9150620005d2826200058d565b602082019050919050565b60006020820190508181036000830152620005f881620005b6565b9050919050565b6129e5806200060f6000396000f3fe6080604052600436106101c25760003560e01c806369b11dd5116100f7578063a51b953311610095578063c234123811610064578063c2341238146106b7578063d7ffca91146106e2578063e262113e1461071f578063e85abe091461074a576101c2565b8063a51b9533146105bd578063a8aeb6c2146105fa578063aecaa63414610637578063c0806b0314610675576101c2565b80637e3abeea116100d15780637e3abeea146104ff578063817b1cd21461053c57806397c0262a146105675780639bff5ddb14610592576101c2565b806369b11dd51461046c5780636bb18556146104975780636f9fb98a146104d4576101c2565b80633ccfd60b1161016457806357fc86b41161013e57806357fc86b4146103a9578063581c5ae6146103d45780635936cf61146103f0578063600d20ce1461042f576101c2565b80633ccfd60b1461032a57806348c372031461034157806348d44bd11461037e576101c2565b8063040a772e116101a0578063040a772e14610248578063153ab9df1461028557806332bc298c146102c257806336144c9a146102ed576101c2565b806301339c21146101c757806301c234a8146101de57806303a93c0c14610209575b600080fd5b3480156101d357600080fd5b506101dc610787565b005b3480156101ea57600080fd5b506101f36107ea565b60405161020091906120ce565b60405180910390f35b34801561021557600080fd5b50610230600480360381019061022b919061214c565b6107f0565b60405161023f93929190612179565b60405180910390f35b34801561025457600080fd5b5061026f600480360381019061026a919061214c565b610907565b60405161027c91906120ce565b60405180910390f35b34801561029157600080fd5b506102ac60048036038101906102a7919061214c565b610c03565b6040516102b991906120ce565b60405180910390f35b3480156102ce57600080fd5b506102d7610c2f565b6040516102e491906120ce565b60405180910390f35b3480156102f957600080fd5b50610314600480360381019061030f919061214c565b610c36565b60405161032191906121bf565b60405180910390f35b34801561033657600080fd5b5061033f610ca2565b005b34801561034d57600080fd5b506103686004803603810190610363919061214c565b610e63565b60405161037591906120ce565b60405180910390f35b34801561038a57600080fd5b50610393610eaf565b6040516103a091906120ce565b60405180910390f35b3480156103b557600080fd5b506103be610eb4565b6040516103cb91906120ce565b60405180910390f35b6103ee60048036038101906103e99190612213565b610eb9565b005b3480156103fc57600080fd5b506104176004803603810190610412919061227f565b611844565b60405161042693929190612179565b60405180910390f35b34801561043b57600080fd5b50610456600480360381019061045191906122bf565b6119c3565b60405161046391906120ce565b60405180910390f35b34801561047857600080fd5b506104816119e7565b60405161048e91906120ce565b60405180910390f35b3480156104a357600080fd5b506104be60048036038101906104b9919061214c565b6119ed565b6040516104cb91906120ce565b60405180910390f35b3480156104e057600080fd5b506104e9611a8d565b6040516104f691906120ce565b60405180910390f35b34801561050b57600080fd5b506105266004803603810190610521919061214c565b611a95565b60405161053391906120ce565b60405180910390f35b34801561054857600080fd5b50610551611b7d565b60405161055e91906120ce565b60405180910390f35b34801561057357600080fd5b5061057c611b83565b604051610589919061230d565b60405180910390f35b34801561059e57600080fd5b506105a7611ba9565b6040516105b491906120ce565b60405180910390f35b3480156105c957600080fd5b506105e460048036038101906105df9190612328565b611baf565b6040516105f191906120ce565b60405180910390f35b34801561060657600080fd5b50610621600480360381019061061c919061214c565b611c6a565b60405161062e91906120ce565b60405180910390f35b34801561064357600080fd5b5061065e60048036038101906106599190612328565b611cb9565b60405161066c929190612355565b60405180910390f35b34801561068157600080fd5b5061069c6004803603810190610697919061237e565b611d17565b6040516106ae969594939291906123cd565b60405180910390f35b3480156106c357600080fd5b506106cc611e77565b6040516106d991906120ce565b60405180910390f35b3480156106ee57600080fd5b506107096004803603810190610704919061214c565b611e7d565b60405161071691906120ce565b60405180910390f35b34801561072b57600080fd5b50610734611ec9565b60405161074191906120ce565b60405180910390f35b34801561075657600080fd5b50610771600480360381019061076c919061214c565b611ed4565b60405161077e91906120ce565b60405180910390f35b600660009054906101000a900473ffffffffffffffffffffffffffffffffffffffff1673ffffffffffffffffffffffffffffffffffffffff163373ffffffffffffffffffffffffffffffffffffffff16146107e157600080fd5b42600581905550565b6103e881565b6000806000600460008573ffffffffffffffffffffffffffffffffffffffff1673ffffffffffffffffffffffffffffffffffffffff16815260200190815260200160002060030160006003811061084a5761084961242e565b5b0154600460008673ffffffffffffffffffffffffffffffffffffffff1673ffffffffffffffffffffffffffffffffffffffff1681526020019081526020016000206003016001600381106108a1576108a061242e565b5b0154600460008773ffffffffffffffffffffffffffffffffffffffff1673ffffffffffffffffffffffffffffffffffffffff1681526020019081526020016000206003016002600381106108f8576108f761242e565b5b01549250925092509193909250565b600080600460008473ffffffffffffffffffffffffffffffffffffffff1673ffffffffffffffffffffffffffffffffffffffff1681526020019081526020016000209050600080600090505b8260000180549050811015610bf8578260000181815481106109785761097761242e565b5b90600052602060002090600602016005015483600101541015610be55760038360000182815481106109ad576109ac61242e565b5b906000526020600020906006020160000160009054906101000a900460ff1660ff161015610b77576000610a4c6103e8610a3e8660000185815481106109f6576109f561242e565b5b906000526020600020906006020160010154876000018681548110610a1e57610a1d61242e565b5b906000526020600020906006020160020154611f7e90919063ffffffff16565b611ff890919063ffffffff16565b905060008460010154856000018481548110610a6b57610a6a61242e565b5b90600052602060002090600602016004015411610a8c578460010154610ab5565b846000018381548110610aa257610aa161242e565b5b9060005260206000209060060201600401545b9050600042866000018581548110610ad057610acf61242e565b5b90600052602060002090600602016005015410610aed5742610b16565b856000018481548110610b0357610b0261242e565b5b9060005260206000209060060201600501545b905080821015610b6f57610b6c610b5d62015180610b4f610b40868661205690919063ffffffff16565b87611f7e90919063ffffffff16565b611ff890919063ffffffff16565b86611f2090919063ffffffff16565b94505b505050610be4565b826000018181548110610b8d57610b8c61242e565b5b906000526020600020906006020160050154421115610be357610be0836000018281548110610bbf57610bbe61242e565b5b90600052602060002090600602016003015483611f2090919063ffffffff16565b91505b5b5b8080610bf09061248c565b915050610953565b508092505050919050565b6000610c28610c1183610907565b610c1a84611ed4565b611f2090919063ffffffff16565b9050919050565b6201518081565b6000600460008373ffffffffffffffffffffffffffffffffffffffff1673ffffffffffffffffffffffffffffffffffffffff16815260200190815260200160002060020160009054906101000a900473ffffffffffffffffffffffffffffffffffffffff169050919050565b6000600460003373ffffffffffffffffffffffffffffffffffffffff1673ffffffffffffffffffffffffffffffffffffffff16815260200190815260200160002090506000610cf033610907565b90506000610d1d612710610d0f6103e885611f7e90919063ffffffff16565b611ff890919063ffffffff16565b9050610d32818361205690919063ffffffff16565b91506000610d3f33611ed4565b90506000811115610d6a5760008460060181905550610d678184611f2090919063ffffffff16565b92505b60008311610dad576040517f08c379a0000000000000000000000000000000000000000000000000000000008152600401610da490612531565b60405180910390fd5b600047905083811015610dbe578093505b4285600101819055503373ffffffffffffffffffffffffffffffffffffffff166108fc859081150290604051600060405180830381858888f19350505050158015610e0d573d6000803e3d6000fd5b503373ffffffffffffffffffffffffffffffffffffffff167f7084f5476618d8e60b11ef0d7d3f06914655adb8793e28ff7f018d4c76d505d585604051610e5491906120ce565b60405180910390a25050505050565b6000600460008373ffffffffffffffffffffffffffffffffffffffff1673ffffffffffffffffffffffffffffffffffffffff168152602001908152602001600020600701549050919050565b606481565b600581565b6005544211610efd576040517f08c379a0000000000000000000000000000000000000000000000000000000008152600401610ef49061259d565b60405180910390fd5b66b1a2bc2ec50000341015610f47576040517f08c379a0000000000000000000000000000000000000000000000000000000008152600401610f3e90612609565b60405180910390fd5b60068160ff1610610f8d576040517f08c379a0000000000000000000000000000000000000000000000000000000008152600401610f8490612675565b60405180910390fd5b6000610fb76103e8610fa9606434611f7e90919063ffffffff16565b611ff890919063ffffffff16565b9050600660009054906101000a900473ffffffffffffffffffffffffffffffffffffffff1673ffffffffffffffffffffffffffffffffffffffff166108fc829081150290604051600060405180830381858888f19350505050158015611021573d6000803e3d6000fd5b503373ffffffffffffffffffffffffffffffffffffffff167f2899dc8c12def1caa9accb64257cf2fd9f960f21bb27a560a757eae3c2ec43c18260405161106891906120ce565b60405180910390a26000600460003373ffffffffffffffffffffffffffffffffffffffff1673ffffffffffffffffffffffffffffffffffffffff1681526020019081526020016000209050600073ffffffffffffffffffffffffffffffffffffffff168160020160009054906101000a900473ffffffffffffffffffffffffffffffffffffffff1673ffffffffffffffffffffffffffffffffffffffff1603611385576000600460008673ffffffffffffffffffffffffffffffffffffffff1673ffffffffffffffffffffffffffffffffffffffff1681526020019081526020016000206000018054905011801561118c57503373ffffffffffffffffffffffffffffffffffffffff168473ffffffffffffffffffffffffffffffffffffffff1614155b156111d557838160020160006101000a81548173ffffffffffffffffffffffffffffffffffffffff021916908373ffffffffffffffffffffffffffffffffffffffff1602179055505b60008160020160009054906101000a900473ffffffffffffffffffffffffffffffffffffffff16905060005b600381101561138257600073ffffffffffffffffffffffffffffffffffffffff168273ffffffffffffffffffffffffffffffffffffffff161461136a576112a76001600460008573ffffffffffffffffffffffffffffffffffffffff1673ffffffffffffffffffffffffffffffffffffffff16815260200190815260200160002060030183600381106112975761129661242e565b5b0154611f2090919063ffffffff16565b600460008473ffffffffffffffffffffffffffffffffffffffff1673ffffffffffffffffffffffffffffffffffffffff16815260200190815260200160002060030182600381106112fb576112fa61242e565b5b0181905550600460008373ffffffffffffffffffffffffffffffffffffffff1673ffffffffffffffffffffffffffffffffffffffff16815260200190815260200160002060020160009054906101000a900473ffffffffffffffffffffffffffffffffffffffff16915061136f565b611382565b808061137a9061248c565b915050611201565b50505b600073ffffffffffffffffffffffffffffffffffffffff168160020160009054906101000a900473ffffffffffffffffffffffffffffffffffffffff1673ffffffffffffffffffffffffffffffffffffffff16146116b15760008160020160009054906101000a900473ffffffffffffffffffffffffffffffffffffffff16905060005b60038110156116ae57600073ffffffffffffffffffffffffffffffffffffffff168273ffffffffffffffffffffffffffffffffffffffff161461169657600061148d6103e861147f600085815481106114655761146461242e565b5b906000526020600020015434611f7e90919063ffffffff16565b611ff890919063ffffffff16565b90506114e481600460008673ffffffffffffffffffffffffffffffffffffffff1673ffffffffffffffffffffffffffffffffffffffff16815260200190815260200160002060060154611f2090919063ffffffff16565b600460008573ffffffffffffffffffffffffffffffffffffffff1673ffffffffffffffffffffffffffffffffffffffff1681526020019081526020016000206006018190555061157f81600460008673ffffffffffffffffffffffffffffffffffffffff1673ffffffffffffffffffffffffffffffffffffffff16815260200190815260200160002060070154611f2090919063ffffffff16565b600460008573ffffffffffffffffffffffffffffffffffffffff1673ffffffffffffffffffffffffffffffffffffffff16815260200190815260200160002060070181905550813373ffffffffffffffffffffffffffffffffffffffff168473ffffffffffffffffffffffffffffffffffffffff167fd41f7e766eebcc7ff42b11ac8691bdf864db4afc0c55e71d629d54edce460d988460405161162391906120ce565b60405180910390a4600460008473ffffffffffffffffffffffffffffffffffffffff1673ffffffffffffffffffffffffffffffffffffffff16815260200190815260200160002060020160009054906101000a900473ffffffffffffffffffffffffffffffffffffffff1692505061169b565b6116ae565b80806116a69061248c565b915050611409565b50505b6000816000018054905003611701574281600101819055507f9fd565cd14c3c391679eb0cad12a14dcf7534e9d3462bcb9b67a098a9bbbc24a336040516116f891906121bf565b60405180910390a15b60008060006117108634611844565b925092509250836000016040518060c001604052808860ff16815260200185815260200134815260200184815260200142815260200183815250908060018154018082558091505060019003906000526020600020906006020160009091909190915060008201518160000160006101000a81548160ff021916908360ff1602179055506020820151816001015560408201518160020155606082015181600301556080820151816004015560a0820151816005015550506117dd34600154611f2090919063ffffffff16565b6001819055503373ffffffffffffffffffffffffffffffffffffffff167f84e02daa69bdb087c9fe8d3041abca495512cb14e723070f6d1d4efface82e5d878534864287604051611833969594939291906123cd565b60405180910390a250505050505050565b600080600061185285611baf565b925060038560ff1610156118c8576118c160038660ff168154811061187a5761187961242e565b5b9060005260206000209060020201600001546118b36103e86118a58789611f7e90919063ffffffff16565b611ff890919063ffffffff16565b611f7e90919063ffffffff16565b915061196a565b60068560ff1610156119695760005b60038660ff16815481106118ee576118ed61242e565b5b906000526020600020906002020160000154811015611967576119526119436103e861193587611927888b611f2090919063ffffffff16565b611f7e90919063ffffffff16565b611ff890919063ffffffff16565b84611f2090919063ffffffff16565b9250808061195f9061248c565b9150506118d7565b505b5b6119ba6119ab6201518060038860ff168154811061198b5761198a61242e565b5b906000526020600020906002020160000154611f7e90919063ffffffff16565b42611f2090919063ffffffff16565b90509250925092565b600081815481106119d357600080fd5b906000526020600020016000915090505481565b60025481565b6000611a86600460008473ffffffffffffffffffffffffffffffffffffffff1673ffffffffffffffffffffffffffffffffffffffff16815260200190815260200160002060060154600460008573ffffffffffffffffffffffffffffffffffffffff1673ffffffffffffffffffffffffffffffffffffffff1681526020019081526020016000206007015461205690919063ffffffff16565b9050919050565b600047905090565b600080600090505b600460008473ffffffffffffffffffffffffffffffffffffffff1673ffffffffffffffffffffffffffffffffffffffff16815260200190815260200160002060000180549050811015611b7757611b62600460008573ffffffffffffffffffffffffffffffffffffffff1673ffffffffffffffffffffffffffffffffffffffff1681526020019081526020016000206000018281548110611b4157611b4061242e565b5b90600052602060002090600602016002015483611f2090919063ffffffff16565b91508080611b6f9061248c565b915050611a9d565b50919050565b60015481565b600660009054906101000a900473ffffffffffffffffffffffffffffffffffffffff1681565b6103e881565b6000600554421115611c3957611c32611bfb62015180611bed611bdd6005544261205690919063ffffffff16565b6005611f7e90919063ffffffff16565b611ff890919063ffffffff16565b60038460ff1681548110611c1257611c1161242e565b5b906000526020600020906002020160010154611f2090919063ffffffff16565b9050611c65565b60038260ff1681548110611c5057611c4f61242e565b5b90600052602060002090600202016001015490505b919050565b6000600460008373ffffffffffffffffffffffffffffffffffffffff1673ffffffffffffffffffffffffffffffffffffffff168152602001908152602001600020600001805490509050919050565b60008060038360ff1681548110611cd357611cd261242e565b5b906000526020600020906002020160000154915060038360ff1681548110611cfe57611cfd61242e565b5b9060005260206000209060020201600101549050915091565b6000806000806000806000600460008a73ffffffffffffffffffffffffffffffffffffffff1673ffffffffffffffffffffffffffffffffffffffff1681526020019081526020016000209050806000018881548110611d7957611d7861242e565b5b906000526020600020906006020160000160009054906101000a900460ff169650806000018881548110611db057611daf61242e565b5b9060005260206000209060060201600101549550806000018881548110611dda57611dd961242e565b5b9060005260206000209060060201600201549450806000018881548110611e0457611e0361242e565b5b9060005260206000209060060201600301549350806000018881548110611e2e57611e2d61242e565b5b9060005260206000209060060201600401549250806000018881548110611e5857611e5761242e565b5b9060005260206000209060060201600501549150509295509295509295565b60055481565b6000600460008373ffffffffffffffffffffffffffffffffffffffff1673ffffffffffffffffffffffffffffffffffffffff168152602001908152602001600020600101549050919050565b66b1a2bc2ec5000081565b6000600460008373ffffffffffffffffffffffffffffffffffffffff1673ffffffffffffffffffffffffffffffffffffffff168152602001908152602001600020600601549050919050565b6000808284611f2f9190612695565b905083811015611f74576040517f08c379a0000000000000000000000000000000000000000000000000000000008152600401611f6b90612737565b60405180910390fd5b8091505092915050565b6000808303611f905760009050611ff2565b60008284611f9e9190612757565b9050828482611fad91906127e0565b14611fed576040517f08c379a0000000000000000000000000000000000000000000000000000000008152600401611fe490612883565b60405180910390fd5b809150505b92915050565b600080821161203c576040517f08c379a0000000000000000000000000000000000000000000000000000000008152600401612033906128ef565b60405180910390fd5b6000828461204a91906127e0565b90508091505092915050565b60008282111561209b576040517f08c379a00000000000000000000000000000000000000000000000000000000081526004016120929061295b565b60405180910390fd5b600082846120a9919061297b565b90508091505092915050565b6000819050919050565b6120c8816120b5565b82525050565b60006020820190506120e360008301846120bf565b92915050565b600080fd5b600073ffffffffffffffffffffffffffffffffffffffff82169050919050565b6000612119826120ee565b9050919050565b6121298161210e565b811461213457600080fd5b50565b60008135905061214681612120565b92915050565b600060208284031215612162576121616120e9565b5b600061217084828501612137565b91505092915050565b600060608201905061218e60008301866120bf565b61219b60208301856120bf565b6121a860408301846120bf565b949350505050565b6121b98161210e565b82525050565b60006020820190506121d460008301846121b0565b92915050565b600060ff82169050919050565b6121f0816121da565b81146121fb57600080fd5b50565b60008135905061220d816121e7565b92915050565b6000806040838503121561222a576122296120e9565b5b600061223885828601612137565b9250506020612249858286016121fe565b9150509250929050565b61225c816120b5565b811461226757600080fd5b50565b60008135905061227981612253565b92915050565b60008060408385031215612296576122956120e9565b5b60006122a4858286016121fe565b92505060206122b58582860161226a565b9150509250929050565b6000602082840312156122d5576122d46120e9565b5b60006122e38482850161226a565b91505092915050565b60006122f7826120ee565b9050919050565b612307816122ec565b82525050565b600060208201905061232260008301846122fe565b92915050565b60006020828403121561233e5761233d6120e9565b5b600061234c848285016121fe565b91505092915050565b600060408201905061236a60008301856120bf565b61237760208301846120bf565b9392505050565b60008060408385031215612395576123946120e9565b5b60006123a385828601612137565b92505060206123b48582860161226a565b9150509250929050565b6123c7816121da565b82525050565b600060c0820190506123e260008301896123be565b6123ef60208301886120bf565b6123fc60408301876120bf565b61240960608301866120bf565b61241660808301856120bf565b61242360a08301846120bf565b979650505050505050565b7f4e487b7100000000000000000000000000000000000000000000000000000000600052603260045260246000fd5b7f4e487b7100000000000000000000000000000000000000000000000000000000600052601160045260246000fd5b6000612497826120b5565b91507fffffffffffffffffffffffffffffffffffffffffffffffffffffffffffffffff82036124c9576124c861245d565b5b600182019050919050565b600082825260208201905092915050565b7f5573657220686173206e6f206469766964656e64730000000000000000000000600082015250565b600061251b6015836124d4565b9150612526826124e5565b602082019050919050565b6000602082019050818103600083015261254a8161250e565b9050919050565b7f746f6f206561726c790000000000000000000000000000000000000000000000600082015250565b60006125876009836124d4565b915061259282612551565b602082019050919050565b600060208201905081810360008301526125b68161257a565b9050919050565b7f746f6f20736d616c6c0000000000000000000000000000000000000000000000600082015250565b60006125f36009836124d4565b91506125fe826125bd565b602082019050919050565b60006020820190508181036000830152612622816125e6565b9050919050565b7f496e76616c696420706c616e0000000000000000000000000000000000000000600082015250565b600061265f600c836124d4565b915061266a82612629565b602082019050919050565b6000602082019050818103600083015261268e81612652565b9050919050565b60006126a0826120b5565b91506126ab836120b5565b9250827fffffffffffffffffffffffffffffffffffffffffffffffffffffffffffffffff038211156126e0576126df61245d565b5b828201905092915050565b7f536166654d6174683a206164646974696f6e206f766572666c6f770000000000600082015250565b6000612721601b836124d4565b915061272c826126eb565b602082019050919050565b6000602082019050818103600083015261275081612714565b9050919050565b6000612762826120b5565b915061276d836120b5565b9250817fffffffffffffffffffffffffffffffffffffffffffffffffffffffffffffffff04831182151516156127a6576127a561245d565b5b828202905092915050565b7f4e487b7100000000000000000000000000000000000000000000000000000000600052601260045260246000fd5b60006127eb826120b5565b91506127f6836120b5565b925082612806576128056127b1565b5b828204905092915050565b7f536166654d6174683a206d756c7469706c69636174696f6e206f766572666c6f60008201527f7700000000000000000000000000000000000000000000000000000000000000602082015250565b600061286d6021836124d4565b915061287882612811565b604082019050919050565b6000602082019050818103600083015261289c81612860565b9050919050565b7f536166654d6174683a206469766973696f6e206279207a65726f000000000000600082015250565b60006128d9601a836124d4565b91506128e4826128a3565b602082019050919050565b60006020820190508181036000830152612908816128cc565b9050919050565b7f536166654d6174683a207375627472616374696f6e206f766572666c6f770000600082015250565b6000612945601e836124d4565b91506129508261290f565b602082019050919050565b6000602082019050818103600083015261297481612938565b9050919050565b6000612986826120b5565b9150612991836120b5565b9250828210156129a4576129a361245d565b5b82820390509291505056fea2646970667358221220fde7c2ca3705ffc33f2fbd253edcee518068d2fe78d551ec6ecae87b5a84699e64736f6c634300080d0033",
  "linkReferences": {},
  "deployedLinkReferences": {}
}